:100000000C942A000C9434000C9434000C943400AA
:100010000C9434000C9434000C9434000C94340090
:100020000C9434000C9434000C9434000C94340080
:100030000C9434000C9434000C9434000C94340070
:100040000C9434000C9434000C9434000C94340060
:100050000C94340011241FBECFE5D8E0DEBFCDBF25
:100060000E9436000C9470000C940000DF93CF9334
:1000700000D00F92CDB7DEB7AAE3B0E0EAE3F0E03C
:10008000808181608C93ABE3B0E0EBE3F0E08081B2
:1000900082608C93E9E3F0E08081869581708B83A8
:1000A0009A818B81981731F08A81882319F489818C
:1000B0008F5F898389818170882341F4ABE3B0E04D
:1000C000EBE3F0E0808181608C9307C0ABE3B0E0AC
:1000D000EBE3F0E080818E7F8C938B818A83DACF93
:0400E000F894FFCFC2
:00000001FF
